{
  "contractName": "cryptoQA",
  "abi": [
    {
      "constant": true,
      "inputs": [
        {
          "name": "",
          "type": "address"
        },
        {
          "name": "",
          "type": "uint256"
        },
        {
          "name": "",
          "type": "uint256"
        }
      ],
      "name": "questionToTotalAnswers",
      "outputs": [
        {
          "name": "",
          "type": "uint256"
        }
      ],
      "payable": false,
      "stateMutability": "view",
      "type": "function",
      "signature": "0x217ef118"
    },
    {
      "constant": true,
      "inputs": [
        {
          "name": "",
          "type": "address"
        },
        {
          "name": "",
          "type": "uint256"
        },
        {
          "name": "",
          "type": "uint256"
        }
      ],
      "name": "Answers",
      "outputs": [
        {
          "name": "answerer",
          "type": "bytes32"
        }
      ],
      "payable": false,
      "stateMutability": "view",
      "type": "function",
      "signature": "0xb2da474c"
    },
    {
      "constant": true,
      "inputs": [
        {
          "name": "",
          "type": "address"
        },
        {
          "name": "",
          "type": "uint256"
        }
      ],
      "name": "totalQuestions",
      "outputs": [
        {
          "name": "",
          "type": "uint256"
        }
      ],
      "payable": false,
      "stateMutability": "view",
      "type": "function",
      "signature": "0xbc9d4d15"
    },
    {
      "constant": false,
      "inputs": [
        {
          "name": "maker",
          "type": "address"
        },
        {
          "name": "questionId",
          "type": "uint256"
        },
        {
          "name": "result",
          "type": "string[]"
        }
      ],
      "name": "answerQuestion",
      "outputs": [
        {
          "name": "",
          "type": "bool"
        }
      ],
      "payable": false,
      "stateMutability": "nonpayable",
      "type": "function",
      "signature": "0xbe0ad007"
    },
    {
      "constant": true,
      "inputs": [
        {
          "name": "maker",
          "type": "address"
        },
        {
          "name": "questionId",
          "type": "uint256"
        },
        {
          "name": "answerId",
          "type": "uint256"
        }
      ],
      "name": "viewQuestionToAnswer",
      "outputs": [
        {
          "name": "",
          "type": "bytes32"
        },
        {
          "name": "",
          "type": "string[]"
        }
      ],
      "payable": false,
      "stateMutability": "view",
      "type": "function",
      "signature": "0x7104505e"
    },
    {
      "constant": true,
      "inputs": [
        {
          "name": "maker",
          "type": "address"
        },
        {
          "name": "questionId",
          "type": "uint256"
        }
      ],
      "name": "viewNumberOfAnswers",
      "outputs": [
        {
          "name": "",
          "type": "uint256"
        }
      ],
      "payable": false,
      "stateMutability": "view",
      "type": "function",
      "signature": "0x8a52d498"
    },
    {
      "constant": true,
      "inputs": [
        {
          "name": "maker",
          "type": "address"
        }
      ],
      "name": "viewNumberOfQuestions",
      "outputs": [
        {
          "name": "",
          "type": "uint256"
        }
      ],
      "payable": false,
      "stateMutability": "view",
      "type": "function",
      "signature": "0xb118c35e"
    },
    {
      "constant": true,
      "inputs": [
        {
          "name": "maker",
          "type": "address"
        },
        {
          "name": "questionId",
          "type": "uint256"
        }
      ],
      "name": "existQuestionId",
      "outputs": [
        {
          "name": "",
          "type": "bool"
        }
      ],
      "payable": false,
      "stateMutability": "view",
      "type": "function",
      "signature": "0x2acd9392"
    }
  ],
  "bytecode": "0x608060405234801561001057600080fd5b50610f1a806100206000396000f3fe608060405234801561001057600080fd5b50600436106100a5576000357c010000000000000000000000000000000000000000000000000000000090048063b118c35e11610078578063b118c35e1461016b578063b2da474c1461019b578063bc9d4d15146101cb578063be0ad007146101fb576100a5565b8063217ef118146100aa5780632acd9392146100da5780637104505e1461010a5780638a52d4981461013b575b600080fd5b6100c460048036036100bf9190810190610bdf565b61022b565b6040516100d19190610d65565b60405180910390f35b6100f460048036036100ef9190810190610b3c565b610268565b6040516101019190610cff565b60405180910390f35b610124600480360361011f9190810190610bdf565b61033b565b604051610132929190610d35565b60405180910390f35b61015560048036036101509190810190610b3c565b6104fe565b6040516101629190610d65565b60405180910390f35b61018560048036036101809190810190610b13565b61055c565b6040516101929190610d65565b60405180910390f35b6101b560048036036101b09190810190610bdf565b6105a8565b6040516101c29190610d1a565b60405180910390f35b6101e560048036036101e09190810190610b3c565b6105e0565b6040516101f29190610d65565b60405180910390f35b61021560048036036102109190810190610b78565b610610565b6040516102229190610cff565b60405180910390f35b60016020528260005260406000206020528160005260406000208181548110151561025257fe5b9060005260206000200160009250925050505481565b600080600090505b600260008573ffffffffffffffffffffffffffffffffffffffff1673ffffffffffffffffffffffffffffffffffffffff1681526020019081526020016000208054905081101561032f5782600260008673ffffffffffffffffffffffffffffffffffffffff1673ffffffffffffffffffffffffffffffffffffffff1681526020019081526020016000208281548110151561030757fe5b90600052602060002001541415610322576001915050610335565b8080600101915050610270565b50600090505b92915050565b6000606060008060008773ffffffffffffffffffffffffffffffffffffffff1673ffffffffffffffffffffffffffffffffffffffff1681526020019081526020016000206000868152602001908152602001600020600085815260200190815260200160002060000154905060606000808873ffffffffffffffffffffffffffffffffffffffff1673ffffffffffffffffffffffffffffffffffffffff16815260200190815260200160002060008781526020019081526020016000206000868152602001908152602001600020600101805480602002602001604051908101604052809291908181526020016000905b828210156104e8578382906000526020600020018054600181600116156101000203166002900480601f0160208091040260200160405190810160405280929190818152602001828054600181600116156101000203166002900480156104d45780601f106104a9576101008083540402835291602001916104d4565b820191906000526020600020905b8154815290600101906020018083116104b757829003601f168201915b50505050508152602001906001019061042c565b5050505090508181935093505050935093915050565b6000600160008473ffffffffffffffffffffffffffffffffffffffff1673ffffffffffffffffffffffffffffffffffffffff168152602001908152602001600020600083815260200190815260200160002080549050905092915050565b6000600260008373ffffffffffffffffffffffffffffffffffffffff1673ffffffffffffffffffffffffffffffffffffffff168152602001908152602001600020805490509050919050565b600060205282600052604060002060205281600052604060002060205280600052604060002060009250925050508060000154905081565b6002602052816000526040600020818154811015156105fb57fe5b90600052602060002001600091509150505481565b60003373ffffffffffffffffffffffffffffffffffffffff168473ffffffffffffffffffffffffffffffffffffffff161415151561064d57600080fd5b6106578484610268565b15156106c757600260008573ffffffffffffffffffffffffffffffffffffffff1673ffffffffffffffffffffffffffffffffffffffff1681526020019081526020016000208390806001815401808255809150509060018203906000526020600020016000909192909190915055505b600033604051602001808273ffffffffffffffffffffffffffffffffffffffff1673ffffffffffffffffffffffffffffffffffffffff166c010000000000000000000000000281526014019150506040516020818303038152906040528051906020012090506000600161073b87876104fe565b019050816000808873ffffffffffffffffffffffffffffffffffffffff1673ffffffffffffffffffffffffffffffffffffffff1681526020019081526020016000206000878152602001908152602001600020600083815260200190815260200160002060000181905550836000808873ffffffffffffffffffffffffffffffffffffffff1673ffffffffffffffffffffffffffffffffffffffff16815260200190815260200160002060008781526020019081526020016000206000838152602001908152602001600020600101908051906020019061081d9291906108a6565b50600160008773ffffffffffffffffffffffffffffffffffffffff1673ffffffffffffffffffffffffffffffffffffffff1681526020019081526020016000206000868152602001908152602001600020600190806001815401808255809150509060018203906000526020600020016000909192909190915055506001925050509392505050565b8280548282559060005260206000209081019282156108f5579160200282015b828111156108f45782518290805190602001906108e4929190610906565b50916020019190600101906108c6565b5b5090506109029190610986565b5090565b828054600181600116156101000203166002900490600052602060002090601f016020900481019282601f1061094757805160ff1916838001178555610975565b82800160010185558215610975579182015b82811115610974578251825591602001919060010190610959565b5b50905061098291906109b2565b5090565b6109af91905b808211156109ab57600081816109a291906109d7565b5060010161098c565b5090565b90565b6109d491905b808211156109d05760008160009055506001016109b8565b5090565b90565b50805460018160011615610100020316600290046000825580601f106109fd5750610a1c565b601f016020900490600052602060002090810190610a1b91906109b2565b5b50565b6000610a2b8235610e71565b905092915050565b600082601f8301121515610a4657600080fd5b8135610a59610a5482610dad565b610d80565b9150818183526020840193506020810190508360005b83811015610a9f5781358601610a858882610aa9565b845260208401935060208301925050600181019050610a6f565b5050505092915050565b600082601f8301121515610abc57600080fd5b8135610acf610aca82610dd5565b610d80565b91508082526020830160208301858383011115610aeb57600080fd5b610af6838284610e8d565b50505092915050565b6000610b0b8235610e83565b905092915050565b600060208284031215610b2557600080fd5b6000610b3384828501610a1f565b91505092915050565b60008060408385031215610b4f57600080fd5b6000610b5d85828601610a1f565b9250506020610b6e85828601610aff565b9150509250929050565b600080600060608486031215610b8d57600080fd5b6000610b9b86828701610a1f565b9350506020610bac86828701610aff565b925050604084013567ffffffffffffffff811115610bc957600080fd5b610bd586828701610a33565b9150509250925092565b600080600060608486031215610bf457600080fd5b6000610c0286828701610a1f565b9350506020610c1386828701610aff565b9250506040610c2486828701610aff565b9150509250925092565b6000610c3982610e0e565b80845260208401935083602082028501610c5285610e01565b60005b84811015610c8b578383038852610c6d838351610cba565b9250610c7882610e24565b9150602088019750600181019050610c55565b508196508694505050505092915050565b610ca581610e31565b82525050565b610cb481610e3d565b82525050565b6000610cc582610e19565b808452610cd9816020860160208601610e9c565b610ce281610ecf565b602085010191505092915050565b610cf981610e67565b82525050565b6000602082019050610d146000830184610c9c565b92915050565b6000602082019050610d2f6000830184610cab565b92915050565b6000604082019050610d4a6000830185610cab565b8181036020830152610d5c8184610c2e565b90509392505050565b6000602082019050610d7a6000830184610cf0565b92915050565b6000604051905081810181811067ffffffffffffffff82111715610da357600080fd5b8060405250919050565b600067ffffffffffffffff821115610dc457600080fd5b602082029050602081019050919050565b600067ffffffffffffffff821115610dec57600080fd5b601f19601f8301169050602081019050919050565b6000602082019050919050565b600081519050919050565b600081519050919050565b6000602082019050919050565b60008115159050919050565b6000819050919050565b600073ffffffffffffffffffffffffffffffffffffffff82169050919050565b6000819050919050565b6000610e7c82610e47565b9050919050565b6000819050919050565b82818337600083830152505050565b60005b83811015610eba578082015181840152602081019050610e9f565b83811115610ec9576000848401525b50505050565b6000601f19601f830116905091905056fea265627a7a7230582072c1e46bdb55984d8f3dc3be527931723f575df10d3cef9822622cdd7bbc9a936c6578706572696d656e74616cf50037",
  "source": "pragma solidity ^0.5.0;\npragma experimental ABIEncoderV2;\n\ncontract cryptoQA {\n    \n    struct Answer {\n        bytes32 answerer;\n        string[] answer;\n    }\n    \n    mapping(address => mapping(uint256 => mapping(uint256 => Answer))) public Answers;\n    mapping(address => mapping(uint256 => uint256[])) public questionToTotalAnswers;\n    mapping(address => uint256[]) public totalQuestions;\n    \n    function answerQuestion(address maker, uint256 questionId, string[] memory result) public returns(bool) {\n        require(maker != msg.sender);\n        if(!existQuestionId(maker, questionId)) {\n            totalQuestions[maker].push(questionId);\n        }\n        bytes32 answerer_hash = keccak256(abi.encodePacked(msg.sender));\n        uint256 answerId = viewNumberOfAnswers(maker, questionId) + 1;\n        Answers[maker][questionId][answerId].answerer = answerer_hash;\n        Answers[maker][questionId][answerId].answer = result;\n        questionToTotalAnswers[maker][questionId].push(1);\n        return true;\n    }\n    \n    function viewQuestionToAnswer(address maker, uint256 questionId, uint256 answerId) public view returns (bytes32, string[] memory) {\n        bytes32 answerer = Answers[maker][questionId][answerId].answerer;\n        string[] memory answer = Answers[maker][questionId][answerId].answer;\n        return(answerer, answer);\n    }\n    \n    function viewNumberOfAnswers(address maker, uint256 questionId) public view returns(uint256) {\n        return questionToTotalAnswers[maker][questionId].length;\n    }\n    \n    function viewNumberOfQuestions(address maker) public view returns(uint256) {\n        return totalQuestions[maker].length;\n    }\n    \n    function existQuestionId(address maker, uint256 questionId) public view returns(bool) {\n        for(uint i = 0; i < totalQuestions[maker].length; i++) {\n            if(totalQuestions[maker][i] == questionId) {\n                return true;\n            }\n        }\n        return false;\n    }\n\n}",
  "sourcePath": "/Users/banana/cryptqa/contracts/cryptQA.sol",
  "compiler": {
    "name": "solc",
    "version": "0.5.2+commit.1df8f40c.Emscripten.clang"
  },
  "schemaVersion": "3.0.2",
  "updatedAt": "2019-06-08T06:06:13.929Z",
  "devdoc": {
    "methods": {}
  },
  "userdoc": {
    "methods": {}
  }
}